{
  "contractName": "Authentication",
  "abi": [
    {
      "constant": false,
      "inputs": [],
      "name": "kill",
      "outputs": [],
      "payable": false,
      "stateMutability": "nonpayable",
      "type": "function"
    },
    {
      "constant": false,
      "inputs": [
        {
          "name": "name",
          "type": "bytes32"
        }
      ],
      "name": "signup",
      "outputs": [
        {
          "name": "",
          "type": "bytes32"
        }
      ],
      "payable": true,
      "stateMutability": "payable",
      "type": "function"
    },
    {
      "constant": false,
      "inputs": [
        {
          "name": "name",
          "type": "bytes32"
        }
      ],
      "name": "update",
      "outputs": [
        {
          "name": "",
          "type": "bytes32"
        }
      ],
      "payable": true,
      "stateMutability": "payable",
      "type": "function"
    },
    {
      "constant": true,
      "inputs": [],
      "name": "owner",
      "outputs": [
        {
          "name": "",
          "type": "address"
        }
      ],
      "payable": false,
      "stateMutability": "view",
      "type": "function"
    },
    {
      "constant": true,
      "inputs": [],
      "name": "login",
      "outputs": [
        {
          "name": "",
          "type": "bytes32"
        }
      ],
      "payable": false,
      "stateMutability": "view",
      "type": "function"
    },
    {
      "constant": false,
      "inputs": [
        {
          "name": "newOwner",
          "type": "address"
        }
      ],
      "name": "transferOwnership",
      "outputs": [],
      "payable": false,
      "stateMutability": "nonpayable",
      "type": "function"
    }
  ],
  "bytecode": "0x6060604052336000806101000a81548173ffffffffffffffffffffffffffffffffffffffff021916908373ffffffffffffffffffffffffffffffffffffffff1602179055506106c4806100536000396000f300606060405260043610610078576000357c0100000000000000000000000000000000000000000000000000000000900463ffffffff16806341c0e1b51461007d5780635c1397de146100925780638b147245146100ca5780638da5cb5b14610102578063b34e97e814610157578063f2fde38b14610188575b600080fd5b341561008857600080fd5b6100906101c1565b005b6100ac600480803560001916906020019091905050610252565b60405180826000191660001916815260200191505060405180910390f35b6100e460048080356000191690602001909190505061039f565b60405180826000191660001916815260200191505060405180910390f35b341561010d57600080fd5b610115610501565b604051808273ffffffffffffffffffffffffffffffffffffffff1673ffffffffffffffffffffffffffffffffffffffff16815260200191505060405180910390f35b341561016257600080fd5b61016a610526565b60405180826000191660001916815260200191505060405180910390f35b341561019357600080fd5b6101bf600480803573ffffffffffffffffffffffffffffffffffffffff169060200190919050506105c8565b005b6000809054906101000a900473ffffffffffffffffffffffffffffffffffffffff1673ffffffffffffffffffffffffffffffffffffffff163373ffffffffffffffffffffffffffffffffffffffff161415610250576000809054906101000a900473ffffffffffffffffffffffffffffffffffffffff1673ffffffffffffffffffffffffffffffffffffffff16ff5b565b600081600060010281600019161415151561026c57600080fd5b6000600102600160003373ffffffffffffffffffffffffffffffffffffffff1673ffffffffffffffffffffffffffffffffffffffff168152602001908152602001600020600001546000191614156103535782600160003373ffffffffffffffffffffffffffffffffffffffff1673ffffffffffffffffffffffffffffffffffffffff1681526020019081526020016000206000018160001916905550600160003373ffffffffffffffffffffffffffffffffffffffff1673ffffffffffffffffffffffffffffffffffffffff168152602001908152602001600020600001549150610399565b600160003373ffffffffffffffffffffffffffffffffffffffff1673ffffffffffffffffffffffffffffffffffffffff1681526020019081526020016000206000015491505b50919050565b60008160006001028160001916141515156103b957600080fd5b6000600102600160003373ffffffffffffffffffffffffffffffffffffffff1673ffffffffffffffffffffffffffffffffffffffff16815260200190815260200160002060000154600019161415151561041257600080fd5b6000600102600160003373ffffffffffffffffffffffffffffffffffffffff1673ffffffffffffffffffffffffffffffffffffffff16815260200190815260200160002060000154600019161415156104fa5782600160003373ffffffffffffffffffffffffffffffffffffffff1673ffffffffffffffffffffffffffffffffffffffff1681526020019081526020016000206000018160001916905550600160003373ffffffffffffffffffffffffffffffffffffffff1673ffffffffffffffffffffffffffffffffffffffff1681526020019081526020016000206000015491506104fb565b5b50919050565b6000809054906101000a900473ffffffffffffffffffffffffffffffffffffffff1681565b600080600102600160003373ffffffffffffffffffffffffffffffffffffffff1673ffffffffffffffffffffffffffffffffffffffff16815260200190815260200160002060000154600019161415151561058057600080fd5b600160003373ffffffffffffffffffffffffffffffffffffffff1673ffffffffffffffffffffffffffffffffffffffff16815260200190815260200160002060000154905090565b6000809054906101000a900473ffffffffffffffffffffffffffffffffffffffff1673ffffffffffffffffffffffffffffffffffffffff163373ffffffffffffffffffffffffffffffffffffffff16141561069557600073ffffffffffffffffffffffffffffffffffffffff168173ffffffffffffffffffffffffffffffffffffffff1614151561069457806000806101000a81548173ffffffffffffffffffffffffffffffffffffffff021916908373ffffffffffffffffffffffffffffffffffffffff1602179055505b5b505600a165627a7a72305820810c8b9f0d6e41fac35569386a24a50c458398780dc782a99d7b6656c3babd790029",
  "source": "pragma solidity ^0.4.2;\r\n\r\nimport './zeppelin/lifecycle/Killable.sol';\r\n\r\ncontract Authentication is Killable {\r\n  struct User {\r\n    bytes32 name;\r\n  }\r\n\r\n  mapping (address => User) private users;\r\n\r\n  uint private id; // Stores user id temporarily\r\n\r\n  modifier onlyExistingUser {\r\n    // Check if user exists or terminate\r\n\r\n    require(!(users[msg.sender].name == 0x0));\r\n    _;\r\n  }\r\n\r\n  modifier onlyValidName(bytes32 name) {\r\n    // Only valid names allowed\r\n\r\n    require(!(name == 0x0));\r\n    _;\r\n  }\r\n\r\n  function login() constant\r\n  public\r\n  onlyExistingUser\r\n  returns (bytes32) {\r\n    return (users[msg.sender].name);\r\n  }\r\n\r\n  function signup(bytes32 name)\r\n  public\r\n  payable\r\n  onlyValidName(name)\r\n  returns (bytes32) {\r\n    // Check if user exists.\r\n    // If yes, return user name.\r\n    // If no, check if name was sent.\r\n    // If yes, create and return user.\r\n\r\n    if (users[msg.sender].name == 0x0)\r\n    {\r\n        users[msg.sender].name = name;\r\n\r\n        return (users[msg.sender].name);\r\n    }\r\n\r\n    return (users[msg.sender].name);\r\n  }\r\n\r\n  function update(bytes32 name)\r\n  public\r\n  payable\r\n  onlyValidName(name)\r\n  onlyExistingUser\r\n  returns (bytes32) {\r\n    // Update user name.\r\n\r\n    if (users[msg.sender].name != 0x0)\r\n    {\r\n        users[msg.sender].name = name;\r\n\r\n        return (users[msg.sender].name);\r\n    }\r\n  }\r\n}\r\n",
  "sourcePath": "D:\\uport\\truffle_react_uport\\contracts\\Authentication.sol",
  "compiler": {
    "name": "solc",
    "version": "0.4.18+commit.9cf6e910.Emscripten.clang"
  },
  "schemaVersion": "1.0.1",
  "updatedAt": "2018-01-20T05:32:51.041Z"
}